:10000000CF93DF9300D000D000D0CDB7DEB787E329
:1000100090E0FC01208187E390E02260FC012083D6
:1000200086E290E0FC01208186E290E02068FC01FD
:10003000208387E290E022E0FC01208383E290E0CD
:10004000FC01108286E290E0FC01208186E290E0D3
:100050002066FC0120838AE490E021E5FC012083F6
:1000600083E590E0FC01108283E590E029E0FC014B
:10007000208382E590E0FC01108289E490E02FEF7C
:10008000FC01208384E290E0FC018081882F90E0D5
:100090009A83898385E290E0FC018081882F90E03B
:1000A0009C838B838B819C81982F882729813A811F
:1000B000822B932B9E838D838D819E819C0136950F
:1000C00027953695279588E490E0FC01208386E209
:1000D00090E0FC01208186E290E02061FC01208319
:0200E000D1CF7E
:00000001FF
